{
  "contractName": "AaveDeFi",
  "abi": [
    {
      "inputs": [],
      "name": "version",
      "outputs": [
        {
          "internalType": "uint256",
          "name": "",
          "type": "uint256"
        }
      ],
      "stateMutability": "view",
      "type": "function"
    },
    {
      "inputs": [
        {
          "internalType": "uint256",
          "name": "_version",
          "type": "uint256"
        }
      ],
      "name": "setVersion",
      "outputs": [],
      "stateMutability": "nonpayable",
      "type": "function"
    }
  ],
  "bytecode": "0x6080604052600160005534801561001557600080fd5b5060b0806100246000396000f3fe6080604052348015600f57600080fd5b506004361060325760003560e01c8063408def1e14603757806354fd4d50146049575b600080fd5b604760423660046063565b600055565b005b605160005481565b60405190815260200160405180910390f35b6000602082840312156073578081fd5b503591905056fea2646970667358221220f1d3a7fda55ece4f29ba42e6a135cfadee743d57a1017310320b68c85aa70f2864736f6c63430008040033",
  "immutableReferences": {},
  "source": "// SPDX-License-Identifier: MIT\npragma solidity ^0.8.4;\n\ncontract AaveDeFi {\n    uint public version = 1;\n\n    function setVersion (uint _version) public {\n        version = _version;\n    }\n}",
  "sourcePath": "/Users/zed/Desktop/AaveDeFi/src/contracts/AaveDeFi.sol",
  "compiler": {
    "name": "solc",
    "version": "0.8.4+commit.c7e474f2.Emscripten.clang"
  },
  "schemaVersion": "3.3.4",
  "updatedAt": "2021-05-18T12:14:08.834Z",
  "devdoc": {
    "kind": "dev",
    "methods": {},
    "version": 1
  },
  "userdoc": {
    "kind": "user",
    "methods": {},
    "version": 1
  }
}