{
  "contractName": "AaveDeFi",
  "abi": [
    {
      "inputs": [],
      "stateMutability": "nonpayable",
      "type": "constructor"
    },
    {
      "anonymous": false,
      "inputs": [
        {
          "indexed": false,
          "internalType": "uint256",
          "name": "ethAmountDeposited",
          "type": "uint256"
        },
        {
          "indexed": false,
          "internalType": "uint256",
          "name": "totalETHDeposits",
          "type": "uint256"
        },
        {
          "indexed": false,
          "internalType": "uint256",
          "name": "priceDAI",
          "type": "uint256"
        },
        {
          "indexed": false,
          "internalType": "uint256",
          "name": "safeMaxDAIBorrow",
          "type": "uint256"
        },
        {
          "indexed": false,
          "internalType": "uint256",
          "name": "totalDAIBorrows",
          "type": "uint256"
        }
      ],
      "name": "DepositBorrow",
      "type": "event"
    },
    {
      "inputs": [],
      "name": "daiEthprice",
      "outputs": [
        {
          "internalType": "uint256",
          "name": "",
          "type": "uint256"
        }
      ],
      "stateMutability": "view",
      "type": "function",
      "constant": true
    },
    {
      "inputs": [],
      "name": "lendingPool",
      "outputs": [
        {
          "internalType": "contract ILendingPool",
          "name": "",
          "type": "address"
        }
      ],
      "stateMutability": "view",
      "type": "function",
      "constant": true
    },
    {
      "inputs": [],
      "name": "name",
      "outputs": [
        {
          "internalType": "string",
          "name": "",
          "type": "string"
        }
      ],
      "stateMutability": "view",
      "type": "function",
      "constant": true
    },
    {
      "inputs": [],
      "name": "priceOracle",
      "outputs": [
        {
          "internalType": "contract IPriceOracle",
          "name": "",
          "type": "address"
        }
      ],
      "stateMutability": "view",
      "type": "function",
      "constant": true
    },
    {
      "inputs": [],
      "name": "provider",
      "outputs": [
        {
          "internalType": "contract ILendingPoolAddressesProvider",
          "name": "",
          "type": "address"
        }
      ],
      "stateMutability": "view",
      "type": "function",
      "constant": true
    },
    {
      "inputs": [
        {
          "internalType": "address",
          "name": "",
          "type": "address"
        }
      ],
      "name": "totalDAIBorrows",
      "outputs": [
        {
          "internalType": "uint256",
          "name": "",
          "type": "uint256"
        }
      ],
      "stateMutability": "view",
      "type": "function",
      "constant": true
    },
    {
      "inputs": [
        {
          "internalType": "address",
          "name": "",
          "type": "address"
        }
      ],
      "name": "totalETHDeposits",
      "outputs": [
        {
          "internalType": "uint256",
          "name": "",
          "type": "uint256"
        }
      ],
      "stateMutability": "view",
      "type": "function",
      "constant": true
    },
    {
      "inputs": [],
      "name": "wethGateway",
      "outputs": [
        {
          "internalType": "contract IWETHGateway",
          "name": "",
          "type": "address"
        }
      ],
      "stateMutability": "view",
      "type": "function",
      "constant": true
    },
    {
      "stateMutability": "payable",
      "type": "receive",
      "payable": true
    },
    {
      "inputs": [],
      "name": "borrowDAIAgainstETH",
      "outputs": [],
      "stateMutability": "payable",
      "type": "function",
      "payable": true
    }
  ],
  "bytecode": "0x60c0604052600c60808190526b4d592041617665204465466960a01b60a090815261002d916000919061013d565b5034801561003a57600080fd5b50600480546001600160a01b03191673b53c1a33016b2dc2ff3653530bff1848a515c8c5908117825560408051630261bf8b60e01b815290519192630261bf8b928282019260209290829003018186803b15801561009757600080fd5b505afa1580156100ab573d6000803e3d6000fd5b505050506040513d601f19601f820116820180604052508101906100cf91906101d6565b600680546001600160a01b03929092166001600160a01b03199283168117909155600580548316909117905560078054821673cc9a0b7c43dc2a5f023bb9b738e45b0ef6b06e041790556008805490911673a50ba011c48153de246e5192c8f9258a2ba79ca917905561023f565b82805461014990610204565b90600052602060002090601f01602090048101928261016b57600085556101b1565b82601f1061018457805160ff19168380011785556101b1565b828001600101855582156101b1579182015b828111156101b1578251825591602001919060010190610196565b506101bd9291506101c1565b5090565b5b808211156101bd57600081556001016101c2565b6000602082840312156101e7578081fd5b81516001600160a01b03811681146101fd578182fd5b9392505050565b600181811c9082168061021857607f821691505b6020821081141561023957634e487b7160e01b600052602260045260246000fd5b50919050565b6107b78061024e6000396000f3fe60806040526004361061008a5760003560e01c8063c49d0ef011610059578063c49d0ef014610139578063c5e10eef14610174578063d65745ae14610194578063e9d106a9146101c1578063f34c3f91146101d757600080fd5b806306fdde0314610096578063085d4883146100c15780632630c12f146100f9578063a59a99731461011957600080fd5b3661009157005b600080fd5b3480156100a257600080fd5b506100ab6101e1565b6040516100b89190610686565b60405180910390f35b3480156100cd57600080fd5b506004546100e1906001600160a01b031681565b6040516001600160a01b0390911681526020016100b8565b34801561010557600080fd5b506008546100e1906001600160a01b031681565b34801561012557600080fd5b506005546100e1906001600160a01b031681565b34801561014557600080fd5b50610166610154366004610620565b60016020526000908152604090205481565b6040519081526020016100b8565b34801561018057600080fd5b506007546100e1906001600160a01b031681565b3480156101a057600080fd5b506101666101af366004610620565b60026020526000908152604090205481565b3480156101cd57600080fd5b5061016660035481565b6101df61026f565b005b600080546101ee90610730565b80601f016020809104026020016040519081016040528092919081815260200182805461021a90610730565b80156102675780601f1061023c57610100808354040283529160200191610267565b820191906000526020600020905b81548152906001019060200180831161024a57829003601f168201915b505050505081565b3360009081526001602052604090205461028a9034906106d9565b3360008181526001602052604080822093909355600754600654935163474cf53d60e01b81526001600160a01b03948516600482015230602482015260448101839052736b175474e89094c44da98b954eedeac495271d0f949293600293605093919273c02aaa39b223fe8d0a0e5c4f27ead9083c756cc292919091169063474cf53d9034906064016000604051808303818588803b15801561032c57600080fd5b505af1158015610340573d6000803e3d6000fd5b505060405163a9059cbb60e01b81523360048201523460248201526001600160a01b038516935063a9059cbb92506044019050602060405180830381600087803b15801561038d57600080fd5b505af11580156103a1573d6000803e3d6000fd5b505050506040513d601f19601f820116820180604052508101906103c5919061064e565b6103ce57600080fd5b60085460405163b3596f0760e01b81526001600160a01b038881166004830152600092169063b3596f079060240160206040518083038186803b15801561041457600080fd5b505afa158015610428573d6000803e3d6000fd5b505050506040513d601f19601f8201168201806040525081019061044c919061066e565b600381905590506000610460826064610711565b61046a3487610711565b61047c90670de0b6b3a7640000610711565b61048691906106f1565b60055460405163a415bcad60e01b81526001600160a01b038b8116600483015260248201849052604482018a905261ffff8b16606483015230608483015292935091169063a415bcad9060a401600060405180830381600087803b1580156104ed57600080fd5b505af1158015610501573d6000803e3d6000fd5b505060405163a9059cbb60e01b8152336004820152602481018490526001600160a01b038b16925063a9059cbb9150604401602060405180830381600087803b15801561054d57600080fd5b505af1158015610561573d6000803e3d6000fd5b505050506040513d601f19601f82011682018060405250810190610585919061064e565b61058e57600080fd5b336000908152600260205260409020546105a99082906106d9565b336000908152600260208181526040808420859055600182529283902054918152825134815290810191909152808201859052606081018490526080810192909252517f867b23624b4dbceb1fa82a503cb5900610bd95b713d95683a52603a18120d97c9181900360a00190a15050505050505050565b600060208284031215610631578081fd5b81356001600160a01b0381168114610647578182fd5b9392505050565b60006020828403121561065f578081fd5b81518015158114610647578182fd5b60006020828403121561067f578081fd5b5051919050565b6000602080835283518082850152825b818110156106b257858101830151858201604001528201610696565b818111156106c35783604083870101525b50601f01601f1916929092016040019392505050565b600082198211156106ec576106ec61076b565b500190565b60008261070c57634e487b7160e01b81526012600452602481fd5b500490565b600081600019048311821515161561072b5761072b61076b565b500290565b600181811c9082168061074457607f821691505b6020821081141561076557634e487b7160e01b600052602260045260246000fd5b50919050565b634e487b7160e01b600052601160045260246000fdfea264697066735822122076c37af48656d5b4ab6ab4e975dab3e90102d04e57e91567d2820fb746f4f33164736f6c63430008040033",
  "immutableReferences": {},
  "source": "// SPDX-License-Identifier: MIT\npragma solidity ^0.8.4;\n\nimport '@openzeppelin/contracts/token/ERC20/IERC20.sol';\nimport './ILendingPoolAddressesProvider.sol';\nimport './ILendingPool.sol';\nimport './IWETHGateway.sol';\nimport './IPriceOracle.sol';\n\ncontract AaveDeFi {\n\n    string public name = \"MY Aave DeFi\";\n\n    // Keep track balances contract\n    mapping(address => uint256) public totalETHDeposits;\n    mapping(address => uint256) public totalDAIBorrows;\n\n    // Keep track latest DAI/ETH price\n    uint256 public daiEthprice;\n    \n    // references to Aave LendingPoolProvider and LendingPool\n    ILendingPoolAddressesProvider public provider;\n    ILendingPool public lendingPool;\n    address addressLendingPool;\n    \n    // WETH Gateway to handle ETH deposits into protocol\n    IWETHGateway public wethGateway; \n\n    // Price Oracle to get asset prices \n    IPriceOracle public priceOracle;\n\n    /// @notice DepositBorrow event emitted on success\n    event DepositBorrow(\n        uint256 ethAmountDeposited, \n        uint256 totalETHDeposits,\n        uint256 priceDAI, \n        uint256 safeMaxDAIBorrow, \n        uint256 totalDAIBorrows\n        );\n\n    constructor() {\n        // Retrieve LendingPoolAddressesProvider & LendingPool using Aave Protocol V2\n        provider = ILendingPoolAddressesProvider(address(0xB53C1a33016B2DC2fF3653530bfF1848a515c8c5)); \n        addressLendingPool = provider.getLendingPool();\n        lendingPool = ILendingPool(address(addressLendingPool));\n        // Retrieve WETH Gateway\n        wethGateway = IWETHGateway(address(0xcc9a0B7c43DC2a5F023Bb9b738E45B0Ef6B06E04));\n        // Retrieve Price Oracle\n        priceOracle = IPriceOracle(address(0xA50ba011c48153De246E5192C8f9258A2ba79Ca9));\n    }\n\n    \n    receive() external payable {\n    }\n\n    /// @notice Function to deposit ETH collateral into Aave and immediately borrow maximum safe amount of DAI  \n    /// @dev DepositBorrow event emitted if successfully borrows \n    function borrowDAIAgainstETH() external payable {\n\n        // Update ethDepositBalances\n        totalETHDeposits[msg.sender] = totalETHDeposits[msg.sender] + msg.value;\n\n        // Input variables \n        address daiAddress = address(0x6B175474E89094C44Da98b954EedeAC495271d0F); // DAI mainnet address\n        uint16 referralCode = 0; // referralCode 0 is like none\n        uint256 variableRate = 2; // 1 is stable rate, 2 is variable rate. We will make use of variable rates\n        uint ltv = 80; // The maximum Loan To Value (LTV) Ratio for the deposited asset/ETH = 0.8\n        address onBehalfOf = msg.sender; \n        address wethAddress = address(0xC02aaA39b223FE8D0A0e5C4F27eAD9083C756Cc2);\n\n        // Deposit the ETH sent with msg.value transfering aWETH to onBehalfOf who accrues the respective deposit power\n        // function depositETH(address lendingPool, address onBehalfOf, uint16 referralCode)\n        wethGateway.depositETH{value: msg.value}(addressLendingPool,address(this), referralCode);\n        require(IERC20(wethAddress).transfer(msg.sender, msg.value));\n    \n        // Use Oracle to DAI price in wei (ETH value)\n        // function getAssetPrice(address asset) external view returns (uint256);\n        // check result if it around value from https://www.coingecko.com/en/coins/dai/eth \n        uint priceDAI = priceOracle.getAssetPrice(daiAddress);\n        daiEthprice = priceDAI;\n\n        // Calculate the maximum safe DAI value you can borrow\n        uint safeMaxDAIBorrow = ltv * msg.value * 10**18 / (priceDAI * 100); // remember scaling in front end\n\n        // Borrow the safeMaxDAIBorrow amount from protocol\n        // function borrow(address asset, uint256 amount, uint256 interestRateMode, uint16 referralCode, address onBehalfOf)\n        lendingPool.borrow(daiAddress, safeMaxDAIBorrow, variableRate, referralCode, address(this));\n\n        // Send the borrowed DAI to borrower\n        require(IERC20(daiAddress).transfer(msg.sender, safeMaxDAIBorrow));\n        //require(IERC20(daiAddress).transferFrom(address(this), msg.sender,safeMaxDAIBorrow));\n\n        // Update daiBorrowBalances\n        totalDAIBorrows[msg.sender] = totalDAIBorrows[msg.sender] + safeMaxDAIBorrow;\n\n        emit DepositBorrow(\n            msg.value, \n            totalETHDeposits[msg.sender],\n            priceDAI, \n            safeMaxDAIBorrow, \n            totalDAIBorrows[msg.sender]\n        );\n    }\n\n}\n\n\n \n",
  "sourcePath": "/Users/zed/Desktop/AaveDeFi/src/contracts/AaveDeFi.sol",
  "compiler": {
    "name": "solc",
    "version": "0.8.4+commit.c7e474f2.Emscripten.clang"
  },
  "schemaVersion": "3.4.1",
  "updatedAt": "2021-06-04T10:03:56.636Z",
  "networkType": "ethereum",
  "devdoc": {
    "kind": "dev",
    "methods": {
      "borrowDAIAgainstETH()": {
        "details": "DepositBorrow event emitted if successfully borrows "
      }
    },
    "version": 1
  },
  "userdoc": {
    "events": {
      "DepositBorrow(uint256,uint256,uint256,uint256,uint256)": {
        "notice": "DepositBorrow event emitted on success"
      }
    },
    "kind": "user",
    "methods": {
      "borrowDAIAgainstETH()": {
        "notice": "Function to deposit ETH collateral into Aave and immediately borrow maximum safe amount of DAI  "
      }
    },
    "version": 1
  }
}