{
  "contractName": "AaveDeFi",
  "abi": [
    {
      "inputs": [],
      "stateMutability": "nonpayable",
      "type": "constructor"
    },
    {
      "anonymous": false,
      "inputs": [
        {
          "indexed": false,
          "internalType": "uint256",
          "name": "ethAmountDeposited",
          "type": "uint256"
        },
        {
          "indexed": false,
          "internalType": "uint256",
          "name": "totalETHDeposits",
          "type": "uint256"
        },
        {
          "indexed": false,
          "internalType": "uint256",
          "name": "priceDAI",
          "type": "uint256"
        },
        {
          "indexed": false,
          "internalType": "uint256",
          "name": "safeMaxDAIBorrow",
          "type": "uint256"
        },
        {
          "indexed": false,
          "internalType": "uint256",
          "name": "totalDAIBorrows",
          "type": "uint256"
        }
      ],
      "name": "DepositBorrow",
      "type": "event"
    },
    {
      "inputs": [],
      "name": "daiEthprice",
      "outputs": [
        {
          "internalType": "uint256",
          "name": "",
          "type": "uint256"
        }
      ],
      "stateMutability": "view",
      "type": "function",
      "constant": true
    },
    {
      "inputs": [],
      "name": "lendingPool",
      "outputs": [
        {
          "internalType": "contract ILendingPool",
          "name": "",
          "type": "address"
        }
      ],
      "stateMutability": "view",
      "type": "function",
      "constant": true
    },
    {
      "inputs": [],
      "name": "name",
      "outputs": [
        {
          "internalType": "string",
          "name": "",
          "type": "string"
        }
      ],
      "stateMutability": "view",
      "type": "function",
      "constant": true
    },
    {
      "inputs": [],
      "name": "priceOracle",
      "outputs": [
        {
          "internalType": "contract IPriceOracle",
          "name": "",
          "type": "address"
        }
      ],
      "stateMutability": "view",
      "type": "function",
      "constant": true
    },
    {
      "inputs": [],
      "name": "provider",
      "outputs": [
        {
          "internalType": "contract ILendingPoolAddressesProvider",
          "name": "",
          "type": "address"
        }
      ],
      "stateMutability": "view",
      "type": "function",
      "constant": true
    },
    {
      "inputs": [
        {
          "internalType": "address",
          "name": "",
          "type": "address"
        }
      ],
      "name": "totalDAIBorrows",
      "outputs": [
        {
          "internalType": "uint256",
          "name": "",
          "type": "uint256"
        }
      ],
      "stateMutability": "view",
      "type": "function",
      "constant": true
    },
    {
      "inputs": [
        {
          "internalType": "address",
          "name": "",
          "type": "address"
        }
      ],
      "name": "totalETHDeposits",
      "outputs": [
        {
          "internalType": "uint256",
          "name": "",
          "type": "uint256"
        }
      ],
      "stateMutability": "view",
      "type": "function",
      "constant": true
    },
    {
      "inputs": [],
      "name": "wethGateway",
      "outputs": [
        {
          "internalType": "contract IWETHGateway",
          "name": "",
          "type": "address"
        }
      ],
      "stateMutability": "view",
      "type": "function",
      "constant": true
    },
    {
      "inputs": [],
      "name": "borrowDAIAgainstETH",
      "outputs": [],
      "stateMutability": "payable",
      "type": "function",
      "payable": true
    }
  ],
  "bytecode": "0x60c0604052600c60808190526b4d592041617665204465466960a01b60a090815261002d916000919061013d565b5034801561003a57600080fd5b50600480546001600160a01b03191673b53c1a33016b2dc2ff3653530bff1848a515c8c5908117825560408051630261bf8b60e01b815290519192630261bf8b928282019260209290829003018186803b15801561009757600080fd5b505afa1580156100ab573d6000803e3d6000fd5b505050506040513d601f19601f820116820180604052508101906100cf91906101d6565b600680546001600160a01b03929092166001600160a01b03199283168117909155600580548316909117905560078054821673cc9a0b7c43dc2a5f023bb9b738e45b0ef6b06e041790556008805490911673a50ba011c48153de246e5192c8f9258a2ba79ca917905561023f565b82805461014990610204565b90600052602060002090601f01602090048101928261016b57600085556101b1565b82601f1061018457805160ff19168380011785556101b1565b828001600101855582156101b1579182015b828111156101b1578251825591602001919060010190610196565b506101bd9291506101c1565b5090565b5b808211156101bd57600081556001016101c2565b6000602082840312156101e7578081fd5b81516001600160a01b03811681146101fd578182fd5b9392505050565b600181811c9082168061021857607f821691505b6020821081141561023957634e487b7160e01b600052602260045260246000fd5b50919050565b6105e38061024e6000396000f3fe6080604052600436106100865760003560e01c8063c49d0ef011610059578063c49d0ef01461012e578063c5e10eef14610169578063d65745ae14610189578063e9d106a9146101b6578063f34c3f91146101cc57600080fd5b806306fdde031461008b578063085d4883146100b65780632630c12f146100ee578063a59a99731461010e575b600080fd5b34801561009757600080fd5b506100a06101d6565b6040516100ad91906104b2565b60405180910390f35b3480156100c257600080fd5b506004546100d6906001600160a01b031681565b6040516001600160a01b0390911681526020016100ad565b3480156100fa57600080fd5b506008546100d6906001600160a01b031681565b34801561011a57600080fd5b506005546100d6906001600160a01b031681565b34801561013a57600080fd5b5061015b61014936600461046c565b60016020526000908152604090205481565b6040519081526020016100ad565b34801561017557600080fd5b506007546100d6906001600160a01b031681565b34801561019557600080fd5b5061015b6101a436600461046c565b60026020526000908152604090205481565b3480156101c257600080fd5b5061015b60035481565b6101d4610264565b005b600080546101e39061055c565b80601f016020809104026020016040519081016040528092919081815260200182805461020f9061055c565b801561025c5780601f106102315761010080835404028352916020019161025c565b820191906000526020600020905b81548152906001019060200180831161023f57829003601f168201915b505050505081565b3360009081526001602052604090205461027f903490610505565b3360008181526001602052604080822093909355600754600654935163474cf53d60e01b81526001600160a01b039485166004820152602481019390935260448301829052736b175474e89094c44da98b954eedeac495271d0f939192600292605092169063474cf53d90606401600060405180830381600087803b15801561030757600080fd5b505af115801561031b573d6000803e3d6000fd5b505060085460405163b3596f0760e01b81526001600160a01b03888116600483015260009450909116915063b3596f079060240160206040518083038186803b15801561036757600080fd5b505afa15801561037b573d6000803e3d6000fd5b505050506040513d601f19601f8201168201806040525081019061039f919061049a565b6003819055905060006103b382606461053d565b6103bd348561053d565b6103c7919061051d565b6103d990670de0b6b3a764000061053d565b336000908152600260205260409020549091506103f7908290610505565b336000908152600260208181526040808420859055600182529283902054918152825134815290810191909152808201859052606081018490526080810192909252517f867b23624b4dbceb1fa82a503cb5900610bd95b713d95683a52603a18120d97c9181900360a00190a1505050505050565b60006020828403121561047d578081fd5b81356001600160a01b0381168114610493578182fd5b9392505050565b6000602082840312156104ab578081fd5b5051919050565b6000602080835283518082850152825b818110156104de578581018301518582016040015282016104c2565b818111156104ef5783604083870101525b50601f01601f1916929092016040019392505050565b6000821982111561051857610518610597565b500190565b60008261053857634e487b7160e01b81526012600452602481fd5b500490565b600081600019048311821515161561055757610557610597565b500290565b600181811c9082168061057057607f821691505b6020821081141561059157634e487b7160e01b600052602260045260246000fd5b50919050565b634e487b7160e01b600052601160045260246000fdfea2646970667358221220ea1c2ec7f795d39d77b40a97745fc77a37495a976bc9bb36626e7eb4392b467e64736f6c63430008040033",
  "immutableReferences": {},
  "source": "// SPDX-License-Identifier: MIT\npragma solidity ^0.8.4;\n\nimport '@openzeppelin/contracts/token/ERC20/IERC20.sol';\nimport './ILendingPoolAddressesProvider.sol';\nimport './ILendingPool.sol';\nimport './IWETHGateway.sol';\nimport './IPriceOracle.sol';\n\ncontract AaveDeFi {\n\n    string public name = \"MY Aave DeFi\";\n\n    // Keep track balances contract\n    mapping(address => uint256) public totalETHDeposits;\n    mapping(address => uint256) public totalDAIBorrows;\n\n    // Keep track latest DAI/ETH price\n    uint256 public daiEthprice;\n    \n    // references to Aave LendingPoolProvider and LendingPool\n    ILendingPoolAddressesProvider public provider;\n    ILendingPool public lendingPool;\n    address addressLendingPool;\n    \n    // WETH Gateway to handle ETH deposits into protocol\n    IWETHGateway public wethGateway; \n\n    // Price Oracle to get asset prices \n    IPriceOracle public priceOracle;\n\n    /// @notice DepositBorrow event emitted on success\n    event DepositBorrow(\n        uint256 ethAmountDeposited, \n        uint256 totalETHDeposits,\n        uint256 priceDAI, \n        uint256 safeMaxDAIBorrow, \n        uint256 totalDAIBorrows\n        );\n\n    constructor() {\n        // Retrieve LendingPoolAddressesProvider & LendingPool using Aave Protocol V2\n        provider = ILendingPoolAddressesProvider(address(0xB53C1a33016B2DC2fF3653530bfF1848a515c8c5)); \n        addressLendingPool = provider.getLendingPool();\n        lendingPool = ILendingPool(address(addressLendingPool));\n        // Retrieve WETH Gateway\n        wethGateway = IWETHGateway(address(0xcc9a0B7c43DC2a5F023Bb9b738E45B0Ef6B06E04));\n        // Retrieve Price Oracle\n        priceOracle = IPriceOracle(address(0xA50ba011c48153De246E5192C8f9258A2ba79Ca9));\n    }\n\n    /*\n    receive() external payable {\n    }\n\n    fallback() external payable {\n    }\n    */\n\n    /// @notice Function to deposit ETH collateral into Aave and immediately borrow maximum safe amount of DAI  \n    /// @dev DepositBorrow event emitted if successfully borrows \n    function borrowDAIAgainstETH() external payable {\n\n        // Update ethDepositBalances\n        totalETHDeposits[msg.sender] = totalETHDeposits[msg.sender] + msg.value;\n\n        // Input variables \n        address daiAddress = address(0x6B175474E89094C44Da98b954EedeAC495271d0F); // DAI mainnet address\n        uint16 referralCode = 0; // referralCode 0 is like none\n        uint256 variableRate = 2; // 1 is stable rate, 2 is variable rate. We will make use of variable rates\n        uint ltv = 80; // The maximum Loan To Value (LTV) Ratio for the deposited asset/ETH = 0.8 \n\n        // Deposit the ETH sent with msg.value transfering aWETH to onBehalf who accrues the respective deposit power\n        // function depositETH(address lendingPool, address onBehalfOf, uint16 referralCode)\n        wethGateway.depositETH(addressLendingPool,msg.sender, referralCode);\n\n        // Use Oracle to DAI price in wei (ETH value)\n        // function getAssetPrice(address asset) external view returns (uint256);\n        // check result if it around value from https://www.coingecko.com/en/coins/dai/eth \n        uint priceDAI = priceOracle.getAssetPrice(daiAddress);\n        daiEthprice = priceDAI;\n\n        // Calculate the maximum safe DAI value you can borrow\n        uint safeMaxDAIBorrow = (ltv * msg.value / (100*priceDAI)) * 10**18; // remember scaling in front end\n\n        // Borrow the safeMaxDAIBorrow amount from protocol\n        // function borrow(address asset, uint256 amount, uint256 interestRateMode, uint16 referralCode, address onBehalfOf)\n        // sends asset to msg.sender\n        // ??? need to fix WETH gateway sending\n        // lendingPool.borrow(daiAddress, safeMaxDAIBorrow, variableRate, referall, onBehalf);\n          \n        // Send the borrowed DAI to borrower\n        // ??? need to receive DAI first \n        //require(IERC20(daiAddress).transfer(msg.sender, safeMaxDAIBorrow));\n\n        // Update daiBorrowBalances\n        totalDAIBorrows[msg.sender] = totalDAIBorrows[msg.sender] + safeMaxDAIBorrow;\n\n        emit DepositBorrow(\n            msg.value, \n            totalETHDeposits[msg.sender],\n            priceDAI, \n            safeMaxDAIBorrow, \n            totalDAIBorrows[msg.sender]\n        );\n    }\n\n}\n\n\n \n",
  "sourcePath": "/Users/zed/Desktop/AaveDeFi/src/contracts/AaveDeFi.sol",
  "compiler": {
    "name": "solc",
    "version": "0.8.4+commit.c7e474f2.Emscripten.clang"
  },
  "schemaVersion": "3.4.1",
  "updatedAt": "2021-06-03T20:01:09.626Z",
  "networkType": "ethereum",
  "devdoc": {
    "kind": "dev",
    "methods": {
      "borrowDAIAgainstETH()": {
        "details": "DepositBorrow event emitted if successfully borrows "
      }
    },
    "version": 1
  },
  "userdoc": {
    "events": {
      "DepositBorrow(uint256,uint256,uint256,uint256,uint256)": {
        "notice": "DepositBorrow event emitted on success"
      }
    },
    "kind": "user",
    "methods": {
      "borrowDAIAgainstETH()": {
        "notice": "Function to deposit ETH collateral into Aave and immediately borrow maximum safe amount of DAI  "
      }
    },
    "version": 1
  }
}