{
  "contractName": "AaveDeFi",
  "abi": [
    {
      "inputs": [],
      "stateMutability": "nonpayable",
      "type": "constructor"
    },
    {
      "anonymous": false,
      "inputs": [
        {
          "indexed": false,
          "internalType": "uint256",
          "name": "ethAmountDeposited",
          "type": "uint256"
        },
        {
          "indexed": false,
          "internalType": "uint256",
          "name": "totalETHDeposits",
          "type": "uint256"
        },
        {
          "indexed": false,
          "internalType": "uint256",
          "name": "priceDAI",
          "type": "uint256"
        },
        {
          "indexed": false,
          "internalType": "uint256",
          "name": "safeMaxDAIBorrow",
          "type": "uint256"
        },
        {
          "indexed": false,
          "internalType": "uint256",
          "name": "totalDAIBorrows",
          "type": "uint256"
        }
      ],
      "name": "DepositBorrow",
      "type": "event"
    },
    {
      "inputs": [],
      "name": "daiEthprice",
      "outputs": [
        {
          "internalType": "uint256",
          "name": "",
          "type": "uint256"
        }
      ],
      "stateMutability": "view",
      "type": "function",
      "constant": true
    },
    {
      "inputs": [],
      "name": "lendingPool",
      "outputs": [
        {
          "internalType": "contract ILendingPool",
          "name": "",
          "type": "address"
        }
      ],
      "stateMutability": "view",
      "type": "function",
      "constant": true
    },
    {
      "inputs": [],
      "name": "name",
      "outputs": [
        {
          "internalType": "string",
          "name": "",
          "type": "string"
        }
      ],
      "stateMutability": "view",
      "type": "function",
      "constant": true
    },
    {
      "inputs": [],
      "name": "priceOracle",
      "outputs": [
        {
          "internalType": "contract IPriceOracle",
          "name": "",
          "type": "address"
        }
      ],
      "stateMutability": "view",
      "type": "function",
      "constant": true
    },
    {
      "inputs": [],
      "name": "provider",
      "outputs": [
        {
          "internalType": "contract ILendingPoolAddressesProvider",
          "name": "",
          "type": "address"
        }
      ],
      "stateMutability": "view",
      "type": "function",
      "constant": true
    },
    {
      "inputs": [
        {
          "internalType": "address",
          "name": "",
          "type": "address"
        }
      ],
      "name": "totalDAIBorrows",
      "outputs": [
        {
          "internalType": "uint256",
          "name": "",
          "type": "uint256"
        }
      ],
      "stateMutability": "view",
      "type": "function",
      "constant": true
    },
    {
      "inputs": [
        {
          "internalType": "address",
          "name": "",
          "type": "address"
        }
      ],
      "name": "totalETHDeposits",
      "outputs": [
        {
          "internalType": "uint256",
          "name": "",
          "type": "uint256"
        }
      ],
      "stateMutability": "view",
      "type": "function",
      "constant": true
    },
    {
      "inputs": [],
      "name": "weth",
      "outputs": [
        {
          "internalType": "contract IWETH",
          "name": "",
          "type": "address"
        }
      ],
      "stateMutability": "view",
      "type": "function",
      "constant": true
    },
    {
      "inputs": [],
      "name": "wethGateway",
      "outputs": [
        {
          "internalType": "contract IWETHGateway",
          "name": "",
          "type": "address"
        }
      ],
      "stateMutability": "view",
      "type": "function",
      "constant": true
    },
    {
      "inputs": [],
      "name": "borrowDAIAgainstETH",
      "outputs": [],
      "stateMutability": "payable",
      "type": "function",
      "payable": true
    }
  ],
  "bytecode": "0x60c0604052600c60808190526b4d592041617665204465466960a01b60a090815261002d916000919061015b565b5034801561003a57600080fd5b50600480546001600160a01b03191673b53c1a33016b2dc2ff3653530bff1848a515c8c5908117825560408051630261bf8b60e01b815290519192630261bf8b928282019260209290829003018186803b15801561009757600080fd5b505afa1580156100ab573d6000803e3d6000fd5b505050506040513d601f19601f820116820180604052508101906100cf91906101f4565b600680546001600160a01b03929092166001600160a01b03199283168117909155600580548316909117905560088054821673cc9a0b7c43dc2a5f023bb9b738e45b0ef6b06e0417905560098054821673a50ba011c48153de246e5192c8f9258a2ba79ca91790556007805490911673c02aaa39b223fe8d0a0e5c4f27ead9083c756cc217905561025d565b82805461016790610222565b90600052602060002090601f01602090048101928261018957600085556101cf565b82601f106101a257805160ff19168380011785556101cf565b828001600101855582156101cf579182015b828111156101cf5782518255916020019190600101906101b4565b506101db9291506101df565b5090565b5b808211156101db57600081556001016101e0565b600060208284031215610205578081fd5b81516001600160a01b038116811461021b578182fd5b9392505050565b600181811c9082168061023657607f821691505b6020821081141561025757634e487b7160e01b600052602260045260246000fd5b50919050565b6107158061026c6000396000f3fe6080604052600436106100915760003560e01c8063c49d0ef011610059578063c49d0ef014610159578063c5e10eef14610194578063d65745ae146101b4578063e9d106a9146101e1578063f34c3f91146101f757600080fd5b806306fdde0314610096578063085d4883146100c15780632630c12f146100f95780633fc8cef314610119578063a59a997314610139575b600080fd5b3480156100a257600080fd5b506100ab610201565b6040516100b891906105e4565b60405180910390f35b3480156100cd57600080fd5b506004546100e1906001600160a01b031681565b6040516001600160a01b0390911681526020016100b8565b34801561010557600080fd5b506009546100e1906001600160a01b031681565b34801561012557600080fd5b506007546100e1906001600160a01b031681565b34801561014557600080fd5b506005546100e1906001600160a01b031681565b34801561016557600080fd5b5061018661017436600461057e565b60016020526000908152604090205481565b6040519081526020016100b8565b3480156101a057600080fd5b506008546100e1906001600160a01b031681565b3480156101c057600080fd5b506101866101cf36600461057e565b60026020526000908152604090205481565b3480156101ed57600080fd5b5061018660035481565b6101ff61028f565b005b6000805461020e9061068e565b80601f016020809104026020016040519081016040528092919081815260200182805461023a9061068e565b80156102875780601f1061025c57610100808354040283529160200191610287565b820191906000526020600020905b81548152906001019060200180831161026a57829003601f168201915b505050505081565b336000908152600160205260409020546102aa903490610637565b33600090815260016020526040808220929092556007548251630d0e30db60e41b81529251736b175474e89094c44da98b954eedeac495271d0f936002926008926001600160a01b039091169163d0e30db0913491600480820192899290919082900301818588803b15801561031f57600080fd5b505af1158015610333573d6000803e3d6000fd5b505060055460405163e8eda9df60e01b815273c02aaa39b223fe8d0a0e5c4f27ead9083c756cc2600482015234602482015233604482015261ffff881660648201526001600160a01b03909116935063e8eda9df92506084019050600060405180830381600087803b1580156103a857600080fd5b505af11580156103bc573d6000803e3d6000fd5b505060095460405163b3596f0760e01b81526001600160a01b03888116600483015260009450909116915063b3596f079060240160206040518083038186803b15801561040857600080fd5b505afa15801561041c573d6000803e3d6000fd5b505050506040513d601f19601f8201168201806040525081019061044091906105cc565b600381905590506000600a610455348561066f565b61045f919061064f565b60405163a9059cbb60e01b81523360048201526000602482018190529192506001600160a01b0388169063a9059cbb90604401602060405180830381600087803b1580156104ac57600080fd5b505af11580156104c0573d6000803e3d6000fd5b505050506040513d601f19601f820116820180604052508101906104e491906105ac565b6104ed57600080fd5b33600090815260026020526040902054610508908290610637565b336000908152600260208181526040808420859055600182529283902054918152825134815290810191909152808201869052606081018490526080810192909252517f867b23624b4dbceb1fa82a503cb5900610bd95b713d95683a52603a18120d97c9181900360a00190a150505050505050565b60006020828403121561058f578081fd5b81356001600160a01b03811681146105a5578182fd5b9392505050565b6000602082840312156105bd578081fd5b815180151581146105a5578182fd5b6000602082840312156105dd578081fd5b5051919050565b6000602080835283518082850152825b81811015610610578581018301518582016040015282016105f4565b818111156106215783604083870101525b50601f01601f1916929092016040019392505050565b6000821982111561064a5761064a6106c9565b500190565b60008261066a57634e487b7160e01b81526012600452602481fd5b500490565b6000816000190483118215151615610689576106896106c9565b500290565b600181811c908216806106a257607f821691505b602082108114156106c357634e487b7160e01b600052602260045260246000fd5b50919050565b634e487b7160e01b600052601160045260246000fdfea2646970667358221220c9775f01eb4af346873c86ba6361813e95892d39c84a0af7f16d324775da283864736f6c63430008040033",
  "immutableReferences": {},
  "source": "// SPDX-License-Identifier: MIT\npragma solidity ^0.8.4;\n\nimport '@openzeppelin/contracts/token/ERC20/IERC20.sol';\nimport './ILendingPoolAddressesProvider.sol';\nimport './ILendingPool.sol';\nimport './IWETHGateway.sol';\nimport './IPriceOracle.sol';\nimport './IWETH.sol';\n\ncontract AaveDeFi {\n\n    string public name = \"MY Aave DeFi\";\n\n    // Keep track balances contract\n    mapping(address => uint256) public totalETHDeposits;\n    mapping(address => uint256) public totalDAIBorrows;\n\n    // Keep track latest DAI/ETH price\n    uint256 public daiEthprice;\n    \n    // references to Aave LendingPoolProvider and LendingPool\n    ILendingPoolAddressesProvider public provider;\n    ILendingPool public lendingPool;\n    address addressLendingPool;\n    IWETH public weth;\n    \n    // WETH Gateway to handle ETH deposits into protocol\n    IWETHGateway public wethGateway; \n\n    // Price Oracle to get asset prices \n    IPriceOracle public priceOracle;\n\n    /// @notice DepositBorrow event emitted on success\n    event DepositBorrow(\n        uint256 ethAmountDeposited, \n        uint256 totalETHDeposits,\n        uint256 priceDAI, \n        uint256 safeMaxDAIBorrow, \n        uint256 totalDAIBorrows\n        );\n\n    constructor() {\n        // Retrieve LendingPoolAddressesProvider & LendingPool using Aave Protocol V2\n        provider = ILendingPoolAddressesProvider(address(0xB53C1a33016B2DC2fF3653530bfF1848a515c8c5)); \n        addressLendingPool = provider.getLendingPool();\n        lendingPool = ILendingPool(address(addressLendingPool));\n        // Retrieve WETH Gateway\n        wethGateway = IWETHGateway(address(0xcc9a0B7c43DC2a5F023Bb9b738E45B0Ef6B06E04));\n        // Retrieve Price Oracle\n        priceOracle = IPriceOracle(address(0xA50ba011c48153De246E5192C8f9258A2ba79Ca9));\n        \n        weth = IWETH(0xC02aaA39b223FE8D0A0e5C4F27eAD9083C756Cc2);\n    }\n\n    /// @notice Function to deposit ETH collateral into Aave and immediately borrow maximum safe amount of DAI  \n    /// @dev DepositBorrow event emitted if successfully borrows \n    function borrowDAIAgainstETH() external payable {\n\n        // Update ethDepositBalances\n        totalETHDeposits[msg.sender] = totalETHDeposits[msg.sender] + msg.value;\n\n        // Input variables \n        address daiAddress = address(0x6B175474E89094C44Da98b954EedeAC495271d0F); // DAI mainnet address\n        uint16 referralCode = 0; // referralCode 0 is like none\n        uint256 variableRate = 2; // 1 is stable rate, 2 is variable rate. We will make use of variable rates\n        uint ltv = 8; // The maximum Loan To Value (LTV) Ratio for the deposited asset/ETH = 0.8 represented as 8/10\n\n        // Deposit the ETH sent with msg.value transfering aWETH to onBehalf who accrues the respective deposit power\n        // function depositETH(address lendingPool, address onBehalfOf, uint16 referralCode)\n        weth.deposit{value: msg.value}();\n        lendingPool.deposit(address(0xC02aaA39b223FE8D0A0e5C4F27eAD9083C756Cc2), msg.value, msg.sender, referralCode);\n        // wethGateway.depositETH(addressLendingPool, msg.sender, referall);\n\n        // Use Oracle to DAI price in wei (ETH value)\n        // function getAssetPrice(address asset) external view returns (uint256);\n        // check result if it around value from https://www.coingecko.com/en/coins/dai/eth \n        uint priceDAI = priceOracle.getAssetPrice(daiAddress);\n        daiEthprice = priceDAI;\n\n        // Calculate the maximum safe ETH value and respective DAI value you can borrow\n        uint safeETHAmount = (ltv * msg.value) / 10;\n        //uint safeMaxDAIBorrow = safeETHAmount / priceDAI;\n        uint safeMaxDAIBorrow = 0;\n\n        // Borrow the safeMaxDAIBorrow amount from protocol\n        // function borrow(address asset, uint256 amount, uint256 interestRateMode, uint16 referralCode, address onBehalfOf)\n        // sends asset to msg.sender\n        // lendingPool.borrow(daiAddress, safeMaxDAIBorrow, variableRate, referall, onBehalf);\n          \n        // Send the borrowed DAI to borrower\n        require(IERC20(daiAddress).transfer(msg.sender, safeMaxDAIBorrow));\n\n        // Update daiBorrowBalances\n        totalDAIBorrows[msg.sender] = totalDAIBorrows[msg.sender] + safeMaxDAIBorrow;\n\n        emit DepositBorrow(\n            msg.value, \n            totalETHDeposits[msg.sender],\n            priceDAI, \n            safeMaxDAIBorrow, \n            totalDAIBorrows[msg.sender]\n        );\n    }\n\n}\n\n\n \n",
  "sourcePath": "/Users/zed/Desktop/AaveDeFi/src/contracts/AaveDeFi.sol",
  "compiler": {
    "name": "solc",
    "version": "0.8.4+commit.c7e474f2.Emscripten.clang"
  },
  "schemaVersion": "3.4.1",
  "updatedAt": "2021-06-03T15:17:00.163Z",
  "networkType": "ethereum",
  "devdoc": {
    "kind": "dev",
    "methods": {
      "borrowDAIAgainstETH()": {
        "details": "DepositBorrow event emitted if successfully borrows "
      }
    },
    "version": 1
  },
  "userdoc": {
    "events": {
      "DepositBorrow(uint256,uint256,uint256,uint256,uint256)": {
        "notice": "DepositBorrow event emitted on success"
      }
    },
    "kind": "user",
    "methods": {
      "borrowDAIAgainstETH()": {
        "notice": "Function to deposit ETH collateral into Aave and immediately borrow maximum safe amount of DAI  "
      }
    },
    "version": 1
  }
}